{
  "contractName": "Sponsor",
  "abi": [
    {
      "inputs": [],
      "payable": false,
      "stateMutability": "nonpayable",
      "type": "constructor"
    },
    {
      "anonymous": false,
      "inputs": [
        {
          "indexed": false,
          "internalType": "uint256",
          "name": "donationIndex",
          "type": "uint256"
        },
        {
          "indexed": false,
          "internalType": "address",
          "name": "from",
          "type": "address"
        },
        {
          "indexed": false,
          "internalType": "address",
          "name": "to",
          "type": "address"
        },
        {
          "indexed": false,
          "internalType": "uint256",
          "name": "value",
          "type": "uint256"
        }
      ],
      "name": "Transfer",
      "type": "event"
    },
    {
      "constant": true,
      "inputs": [
        {
          "internalType": "address",
          "name": "",
          "type": "address"
        }
      ],
      "name": "DDetails",
      "outputs": [
        {
          "internalType": "address",
          "name": "donorAddress",
          "type": "address"
        },
        {
          "internalType": "uint256",
          "name": "amount",
          "type": "uint256"
        }
      ],
      "payable": false,
      "stateMutability": "view",
      "type": "function"
    },
    {
      "constant": true,
      "inputs": [],
      "name": "administrator",
      "outputs": [
        {
          "internalType": "address",
          "name": "",
          "type": "address"
        }
      ],
      "payable": false,
      "stateMutability": "view",
      "type": "function"
    },
    {
      "constant": true,
      "inputs": [],
      "name": "donationIndex",
      "outputs": [
        {
          "internalType": "uint256",
          "name": "",
          "type": "uint256"
        }
      ],
      "payable": false,
      "stateMutability": "view",
      "type": "function"
    },
    {
      "constant": true,
      "inputs": [
        {
          "internalType": "uint256",
          "name": "",
          "type": "uint256"
        }
      ],
      "name": "donations",
      "outputs": [
        {
          "internalType": "uint256",
          "name": "index",
          "type": "uint256"
        },
        {
          "internalType": "address",
          "name": "_from",
          "type": "address"
        },
        {
          "internalType": "address",
          "name": "to",
          "type": "address"
        },
        {
          "internalType": "uint256",
          "name": "value",
          "type": "uint256"
        },
        {
          "internalType": "uint256",
          "name": "donatedFor",
          "type": "uint256"
        },
        {
          "internalType": "uint256",
          "name": "timeStamp",
          "type": "uint256"
        }
      ],
      "payable": false,
      "stateMutability": "view",
      "type": "function"
    },
    {
      "constant": true,
      "inputs": [
        {
          "internalType": "uint256",
          "name": "",
          "type": "uint256"
        }
      ],
      "name": "donator",
      "outputs": [
        {
          "internalType": "address",
          "name": "",
          "type": "address"
        }
      ],
      "payable": false,
      "stateMutability": "view",
      "type": "function"
    },
    {
      "constant": true,
      "inputs": [
        {
          "internalType": "address",
          "name": "",
          "type": "address"
        }
      ],
      "name": "registeredOrphanage",
      "outputs": [
        {
          "internalType": "string",
          "name": "fullname",
          "type": "string"
        },
        {
          "internalType": "address payable",
          "name": "orphanageAddress",
          "type": "address"
        },
        {
          "internalType": "bool",
          "name": "isAccepting",
          "type": "bool"
        }
      ],
      "payable": false,
      "stateMutability": "view",
      "type": "function"
    },
    {
      "constant": false,
      "inputs": [
        {
          "internalType": "string",
          "name": "_fullname",
          "type": "string"
        }
      ],
      "name": "registerAsOrphanage",
      "outputs": [],
      "payable": true,
      "stateMutability": "payable",
      "type": "function"
    },
    {
      "constant": false,
      "inputs": [
        {
          "internalType": "address",
          "name": "receivingParty",
          "type": "address"
        }
      ],
      "name": "donateCoins",
      "outputs": [],
      "payable": true,
      "stateMutability": "payable",
      "type": "function"
    },
    {
      "constant": false,
      "inputs": [
        {
          "internalType": "address",
          "name": "receiver",
          "type": "address"
        },
        {
          "internalType": "uint256",
          "name": "_donationType",
          "type": "uint256"
        },
        {
          "internalType": "uint256",
          "name": "childrenCount",
          "type": "uint256"
        }
      ],
      "name": "sponsorAchild",
      "outputs": [],
      "payable": true,
      "stateMutability": "payable",
      "type": "function"
    },
    {
      "constant": false,
      "inputs": [
        {
          "internalType": "address",
          "name": "_receiver",
          "type": "address"
        },
        {
          "internalType": "uint256",
          "name": "_donatedFor",
          "type": "uint256"
        }
      ],
      "name": "donationReceipt",
      "outputs": [],
      "payable": false,
      "stateMutability": "nonpayable",
      "type": "function"
    },
    {
      "constant": true,
      "inputs": [],
      "name": "getDonorList",
      "outputs": [
        {
          "internalType": "address[]",
          "name": "",
          "type": "address[]"
        }
      ],
      "payable": false,
      "stateMutability": "view",
      "type": "function"
    },
    {
      "constant": true,
      "inputs": [
        {
          "internalType": "uint256",
          "name": "_donationIndex",
          "type": "uint256"
        }
      ],
      "name": "getDonationReceipt",
      "outputs": [
        {
          "internalType": "uint256",
          "name": "",
          "type": "uint256"
        },
        {
          "internalType": "address",
          "name": "",
          "type": "address"
        },
        {
          "internalType": "address",
          "name": "",
          "type": "address"
        },
        {
          "internalType": "uint256",
          "name": "",
          "type": "uint256"
        },
        {
          "internalType": "uint256",
          "name": "",
          "type": "uint256"
        },
        {
          "internalType": "uint256",
          "name": "",
          "type": "uint256"
        }
      ],
      "payable": false,
      "stateMutability": "view",
      "type": "function"
    }
  ],
  "bytecode": "0x608060405234801561001057600080fd5b50336000806101000a81548173ffffffffffffffffffffffffffffffffffffffff021916908373ffffffffffffffffffffffffffffffffffffffff160217905550611539806100606000396000f3fe6080604052600436106100a75760003560e01c8063ad5bdd3911610064578063ad5bdd3914610408578063ade68970146104c3578063c02d91a81461053e578063c3f2b96a14610582578063f53d0a8e146105da578063f8626af814610631576100a7565b806311004e21146100ac578063170b7cd0146100d7578063279cf1ea146101a15780633b6dca36146102a95780634218f7211461034157806348cfc7791461039c575b600080fd5b3480156100b857600080fd5b506100c16106fb565b6040518082815260200191505060405180910390f35b3480156100e357600080fd5b50610110600480360360208110156100fa57600080fd5b8101908080359060200190929190505050610701565b604051808781526020018673ffffffffffffffffffffffffffffffffffffffff1673ffffffffffffffffffffffffffffffffffffffff1681526020018573ffffffffffffffffffffffffffffffffffffffff1673ffffffffffffffffffffffffffffffffffffffff168152602001848152602001838152602001828152602001965050505050505060405180910390f35b3480156101ad57600080fd5b506101f0600480360360208110156101c457600080fd5b81019080803573ffffffffffffffffffffffffffffffffffffffff1690602001909291905050506107e9565b60405180806020018473ffffffffffffffffffffffffffffffffffffffff1673ffffffffffffffffffffffffffffffffffffffff16815260200183151515158152602001828103825285818151815260200191508051906020019080838360005b8381101561026c578082015181840152602081019050610251565b50505050905090810190601f1680156102995780820380516001836020036101000a031916815260200191505b5094505050505060405180910390f35b3480156102b557600080fd5b506102f8600480360360208110156102cc57600080fd5b81019080803573ffffffffffffffffffffffffffffffffffffffff1690602001909291905050506108d8565b604051808373ffffffffffffffffffffffffffffffffffffffff1673ffffffffffffffffffffffffffffffffffffffff1681526020018281526020019250505060405180910390f35b34801561034d57600080fd5b5061039a6004803603604081101561036457600080fd5b81019080803573ffffffffffffffffffffffffffffffffffffffff1690602001909291908035906020019092919050505061091c565b005b3480156103a857600080fd5b506103b1610be6565b6040518080602001828103825283818151815260200191508051906020019060200280838360005b838110156103f45780820151818401526020810190506103d9565b505050509050019250505060405180910390f35b6104c16004803603602081101561041e57600080fd5b810190808035906020019064010000000081111561043b57600080fd5b82018360208201111561044d57600080fd5b8035906020019184600183028401116401000000008311171561046f57600080fd5b91908080601f016020809104026020016040519081016040528093929190818152602001838380828437600081840152601f19601f820116905080830192505050505050509192919290505050610c74565b005b3480156104cf57600080fd5b506104fc600480360360208110156104e657600080fd5b8101908080359060200190929190505050610e9d565b604051808273ffffffffffffffffffffffffffffffffffffffff1673ffffffffffffffffffffffffffffffffffffffff16815260200191505060405180910390f35b6105806004803603602081101561055457600080fd5b81019080803573ffffffffffffffffffffffffffffffffffffffff169060200190929190505050610ed9565b005b6105d86004803603606081101561059857600080fd5b81019080803573ffffffffffffffffffffffffffffffffffffffff16906020019092919080359060200190929190803590602001909291905050506110c5565b005b3480156105e657600080fd5b506105ef6113be565b604051808273ffffffffffffffffffffffffffffffffffffffff1673ffffffffffffffffffffffffffffffffffffffff16815260200191505060405180910390f35b34801561063d57600080fd5b5061066a6004803603602081101561065457600080fd5b81019080803590602001909291905050506113e3565b604051808781526020018673ffffffffffffffffffffffffffffffffffffffff1673ffffffffffffffffffffffffffffffffffffffff1681526020018573ffffffffffffffffffffffffffffffffffffffff1673ffffffffffffffffffffffffffffffffffffffff168152602001848152602001838152602001828152602001965050505050505060405180910390f35b60035481565b60008060008060008060026000888152602001908152602001600020600001546002600089815260200190815260200160002060010160009054906101000a900473ffffffffffffffffffffffffffffffffffffffff16600260008a815260200190815260200160002060020160009054906101000a900473ffffffffffffffffffffffffffffffffffffffff16600260008b815260200190815260200160002060030154600260008c815260200190815260200160002060040154600260008d81526020019081526020016000206005015495509550955095509550955091939550919395565b6001602052806000526040600020600091509050806000018054600181600116156101000203166002900480601f0160208091040260200160405190810160405280929190818152602001828054600181600116156101000203166002900480156108955780601f1061086a57610100808354040283529160200191610895565b820191906000526020600020905b81548152906001019060200180831161087857829003601f168201915b5050505050908060010160009054906101000a900473ffffffffffffffffffffffffffffffffffffffff16908060010160149054906101000a900460ff16905083565b60046020528060005260406000206000915090508060000160009054906101000a900473ffffffffffffffffffffffffffffffffffffffff16908060010154905082565b3373ffffffffffffffffffffffffffffffffffffffff16600460003373ffffffffffffffffffffffffffffffffffffffff1673ffffffffffffffffffffffffffffffffffffffff16815260200190815260200160002060000160009054906101000a900473ffffffffffffffffffffffffffffffffffffffff1673ffffffffffffffffffffffffffffffffffffffff16146109b657600080fd5b6000600460003373ffffffffffffffffffffffffffffffffffffffff1673ffffffffffffffffffffffffffffffffffffffff1681526020019081526020016000206001015490506003600081548092919060010191905055506040518060c0016040528060035481526020013373ffffffffffffffffffffffffffffffffffffffff1681526020018473ffffffffffffffffffffffffffffffffffffffff168152602001828152602001838152602001428152506002600060035481526020019081526020016000206000820151816000015560208201518160010160006101000a81548173ffffffffffffffffffffffffffffffffffffffff021916908373ffffffffffffffffffffffffffffffffffffffff16021790555060408201518160020160006101000a81548173ffffffffffffffffffffffffffffffffffffffff021916908373ffffffffffffffffffffffffffffffffffffffff160217905550606082015181600301556080820151816004015560a082015181600501559050507ff2dbd98d79f00f7aff338b824931d607bfcc63d47307162470f25a055102d3b0600354338584604051808581526020018473ffffffffffffffffffffffffffffffffffffffff1673ffffffffffffffffffffffffffffffffffffffff1681526020018373ffffffffffffffffffffffffffffffffffffffff1673ffffffffffffffffffffffffffffffffffffffff16815260200182815260200194505050505060405180910390a1505050565b60606005805480602002602001604051908101604052809291908181526020018280548015610c6a57602002820191906000526020600020905b8160009054906101000a900473ffffffffffffffffffffffffffffffffffffffff1673ffffffffffffffffffffffffffffffffffffffff1681526020019060010190808311610c20575b5050505050905090565b6000809054906101000a900473ffffffffffffffffffffffffffffffffffffffff1673ffffffffffffffffffffffffffffffffffffffff163373ffffffffffffffffffffffffffffffffffffffff1614610ccd57600080fd5b600160003373ffffffffffffffffffffffffffffffffffffffff1673ffffffffffffffffffffffffffffffffffffffff16815260200190815260200160002060010160009054906101000a900473ffffffffffffffffffffffffffffffffffffffff1673ffffffffffffffffffffffffffffffffffffffff163373ffffffffffffffffffffffffffffffffffffffff161415610d6857600080fd5b80600160003373ffffffffffffffffffffffffffffffffffffffff1673ffffffffffffffffffffffffffffffffffffffff1681526020019081526020016000206000019080519060200190610dbe92919061145f565b5033600160003373ffffffffffffffffffffffffffffffffffffffff1673ffffffffffffffffffffffffffffffffffffffff16815260200190815260200160002060010160006101000a81548173ffffffffffffffffffffffffffffffffffffffff021916908373ffffffffffffffffffffffffffffffffffffffff16021790555060018060003373ffffffffffffffffffffffffffffffffffffffff1673ffffffffffffffffffffffffffffffffffffffff16815260200190815260200160002060010160146101000a81548160ff02191690831515021790555050565b60058181548110610eaa57fe5b906000526020600020016000915054906101000a900473ffffffffffffffffffffffffffffffffffffffff1681565b600160008273ffffffffffffffffffffffffffffffffffffffff1673ffffffffffffffffffffffffffffffffffffffff16815260200190815260200160002060010160009054906101000a900473ffffffffffffffffffffffffffffffffffffffff1673ffffffffffffffffffffffffffffffffffffffff166108fc349081150290604051600060405180830381858888f19350505050158015610f81573d6000803e3d6000fd5b5060053390806001815401808255809150509060018203906000526020600020016000909192909190916101000a81548173ffffffffffffffffffffffffffffffffffffffff021916908373ffffffffffffffffffffffffffffffffffffffff1602179055505033600460003373ffffffffffffffffffffffffffffffffffffffff1673ffffffffffffffffffffffffffffffffffffffff16815260200190815260200160002060000160006101000a81548173ffffffffffffffffffffffffffffffffffffffff021916908373ffffffffffffffffffffffffffffffffffffffff16021790555034600460003373ffffffffffffffffffffffffffffffffffffffff1673ffffffffffffffffffffffffffffffffffffffff1681526020019081526020016000206001018190555060036000815480929190600101919050555050565b816001808111156110d257fe5b10156110dd57600080fd5b81600060018111156110eb57fe5b14156111b65760006102bc905080820234101561110757600080fd5b600160008573ffffffffffffffffffffffffffffffffffffffff1673ffffffffffffffffffffffffffffffffffffffff16815260200190815260200160002060010160009054906101000a900473ffffffffffffffffffffffffffffffffffffffff1673ffffffffffffffffffffffffffffffffffffffff166108fc349081150290604051600060405180830381858888f193505050501580156111af573d6000803e3d6000fd5b505061128b565b816001808111156111c357fe5b141561128a57600061025890508082023410156111df57600080fd5b600160008573ffffffffffffffffffffffffffffffffffffffff1673ffffffffffffffffffffffffffffffffffffffff16815260200190815260200160002060010160009054906101000a900473ffffffffffffffffffffffffffffffffffffffff1673ffffffffffffffffffffffffffffffffffffffff166108fc349081150290604051600060405180830381858888f19350505050158015611287573d6000803e3d6000fd5b50505b5b60053390806001815401808255809150509060018203906000526020600020016000909192909190916101000a81548173ffffffffffffffffffffffffffffffffffffffff021916908373ffffffffffffffffffffffffffffffffffffffff1602179055505033600460003373ffffffffffffffffffffffffffffffffffffffff1673ffffffffffffffffffffffffffffffffffffffff16815260200190815260200160002060000160006101000a81548173ffffffffffffffffffffffffffffffffffffffff021916908373ffffffffffffffffffffffffffffffffffffffff16021790555034600460003373ffffffffffffffffffffffffffffffffffffffff1673ffffffffffffffffffffffffffffffffffffffff16815260200190815260200160002060010181905550505050565b6000809054906101000a900473ffffffffffffffffffffffffffffffffffffffff1681565b60026020528060005260406000206000915090508060000154908060010160009054906101000a900473ffffffffffffffffffffffffffffffffffffffff16908060020160009054906101000a900473ffffffffffffffffffffffffffffffffffffffff16908060030154908060040154908060050154905086565b828054600181600116156101000203166002900490600052602060002090601f016020900481019282601f106114a057805160ff19168380011785556114ce565b828001600101855582156114ce579182015b828111156114cd5782518255916020019190600101906114b2565b5b5090506114db91906114df565b5090565b61150191905b808211156114fd5760008160009055506001016114e5565b5090565b9056fea265627a7a72315820ac4b13008b1748068fccd14cc9edb06e5dc8325bd279a57fb513c6c72f32f49664736f6c634300050c0032",
  "source": "pragma solidity ^0.5.12;\r\ncontract Sponsor{\r\n enum TypesOfDonations {Education,Meals}\r\n //In Solidity you will store date as uint type\r\n  struct Orphanage{\r\n      string fullname;\r\n      address payable orphanageAddress;\r\n      bool isAccepting;\r\n  }\r\n\r\n  struct Receipt{\r\n      uint256 index;\r\n      address _from;\r\n      address to;\r\n      uint256 value;\r\n      uint256 donatedFor;\r\n      uint256 timeStamp;\r\n  }\r\n\r\n  struct donorDetails{\r\n      address donorAddress;\r\n      uint256 amount;\r\n  }\r\n  address public administrator;\r\n  mapping(address=> Orphanage) public registeredOrphanage;\r\n  mapping(uint=>Receipt) public donations;\r\n  uint256 public donationIndex;\r\n  mapping(address=>donorDetails) public DDetails;\r\n  address[] public donator;\r\n  event Transfer(uint256 donationIndex,address from,address to,uint256 value );\r\n\r\n\r\n  constructor() public{\r\n      administrator=msg.sender;\r\n   }\r\n\r\n     modifier onlyAdministrator{\r\n        require(msg.sender == administrator);\r\n        _;\r\n    }\r\n\r\n    //orphanage should be registered in the blockchain\r\n    function registerAsOrphanage(string memory _fullname)  public payable onlyAdministrator{\r\n     require(msg.sender!=registeredOrphanage[msg.sender].orphanageAddress);\r\n     registeredOrphanage[msg.sender].fullname=_fullname;\r\n     registeredOrphanage[msg.sender].orphanageAddress=msg.sender;\r\n     registeredOrphanage[msg.sender].isAccepting=true;\r\n    }\r\n\r\n    //If the donor wishes to donate a random amount of his choice\r\n    function donateCoins(address receivingParty) public payable{\r\n\r\n        registeredOrphanage[receivingParty].orphanageAddress.transfer(msg.value);\r\n         donator.push(msg.sender);\r\n         DDetails[msg.sender].donorAddress=msg.sender;\r\n         DDetails[msg.sender].amount=msg.value;\r\n         donationIndex++;\r\n    }\r\n\r\n    //If a donor wants to sponser a child for his/her education and meals for an entire year.\r\n    //For one child, the education cost per year is 700 wei\r\n    //For one child, the meals cost per year is 600 wei\r\n    function sponsorAchild(address receiver,uint _donationType,uint256 childrenCount)  public payable{\r\n        //require(registeredOrphanage[receiver].isAccepting==true);\r\n        require(uint(TypesOfDonations.Meals) >= _donationType);\r\n        if(uint(TypesOfDonations.Education)==_donationType){\r\n            uint256 educationCostPerHead=700 wei;\r\n            require(msg.value>=(childrenCount*educationCostPerHead));\r\n            registeredOrphanage[receiver].orphanageAddress.transfer(msg.value);\r\n        }else if(uint(TypesOfDonations.Meals)==_donationType){\r\n            uint256 mealsCostPerHead=600 wei;\r\n            require(msg.value>=(childrenCount*mealsCostPerHead));\r\n            registeredOrphanage[receiver].orphanageAddress.transfer(msg.value);\r\n        }\r\n         donator.push(msg.sender);\r\n         DDetails[msg.sender].donorAddress=msg.sender;\r\n         DDetails[msg.sender].amount=msg.value;\r\n    }\r\n\r\n    function donationReceipt(address _receiver,uint256 _donatedFor) public{\r\n        require(DDetails[msg.sender].donorAddress==msg.sender);\r\n        uint256 _amount;\r\n        _amount=DDetails[msg.sender].amount;\r\n        donationIndex++;\r\n        donations[donationIndex]=Receipt(donationIndex,msg.sender,_receiver,_amount,_donatedFor,now);\r\n        emit Transfer(donationIndex,msg.sender,_receiver,_amount);\r\n    }\r\n    function getDonorList() public view returns(address[] memory){\r\n        return donator;\r\n    }\r\n\r\n\r\n    function getDonationReceipt(uint256 _donationIndex) public view returns(uint256,address,address,uint256,uint256,uint256)\r\n    {\r\n        return (donations[_donationIndex].index,donations[_donationIndex]._from,donations[_donationIndex].to,donations[_donationIndex].value,donations[_donationIndex].donatedFor,donations[_donationIndex].timeStamp);\r\n    }\r\n\r\n}",
  "sourcePath": "C:/Users/yasaswini/donation/contracts/Sponsor.sol",
  "compiler": {
    "name": "solc",
    "version": "0.5.12+commit.7709ece9.Emscripten.clang"
  },
  "schemaVersion": "3.0.19",
  "updatedAt": "2019-12-29T18:45:03.072Z",
  "devdoc": {
    "methods": {}
  },
  "userdoc": {
    "methods": {}
  }
}